S0170000646972656374696F6E616C5F6C65642E73726563EB
S11300000C9434000C9451000C9451000C94510045
S11300100C9451000C9451000C9451000C94510018
S11300200C9451000C9451000C9451000C94530006
S11300300C9451000C9451000C9451000C945100F8
S11300400C9451000C9451000C9451000C945100E8
S11300500C9451000C9451000C9451000C945100D8
S11300600C9451000C94510011241FBECFEFD8E022
S1130070DEBFCDBF11E0A0E0B1E0E0E1F2E002C0FC
S113008005900D92A430B107D9F721E0A4E0B1E0C6
S113009001C01D92A830B207E1F70E9485000C94BC
S11300A006010C9400001F920F920FB60F921124B8
S11300B02F933F938F939F9380910001909101011F
S11300C0019719F488B1816088B9809100019091F9
S11300D00101892B19F488B18E7F88B981E090E001
S11300E02091000130910101232B11F080E090E078
S11300F090930101809300019F918F913F912F91E3
S11301000F900FBE0F901F90189584B18FEF84B994
S113011087B1816087B9E1E8F0E080818B608083FA
S113012085E090E09093890080938800EFE6F0E00A
S1130130808182608083789480E090E002C088E0CF
S113014090E0209102013091030121303105E1F466
S1130150909307018093060145B121E030E0082E19
S113016002C0220F331F0A94E2F7242B25B92FE58E
S11301703AEE40E0215030404040E1F700C000003A
S113018010920301109202012091020130910301A7
S1130190232BB1F4909307018093060135B161E0FC
S11301A070E0AB01082E02C0440F551F0A94E2F719
S11301B0242F2095232325B9709303016093020112
S11301C0319B09C021E030E0309305012093040104
S11301D028B12D7F28B9329B07C0109205011092D7
S11301E0040128B12B7F28B9209104013091050125
S11301F0232B11F4019701C001968830910514F066
S113020080E090E099230CF09CCF99CFF894FFCF35
S107021001000100E4
S9030000FC
