S01400006578616D655F6D69635F69692E7372656337
S11300000C9434000C943E000C943E000C943E007E
S11300100C943E000C943E000C943E000C943E0064
S11300200C943E000C943E000C943E000C943E0054
S11300300C943E000C943E000C943E000C943E0044
S11300400C943E000C943E000C943E000C943E0034
S11300500C943E000C943E000C943E000C943E0024
S11300600C943E000C943E0011241FBECFEFD8E048
S1130070DEBFCDBF0E944B000C9473020C940000B1
S113008095B121E030E002C0220F331F8A95E2F7D8
S1130090292B25B908958FEF84B917B8ECE7F0E060
S11300A0808180648083EAE7F0E08081876A8083CE
S11300B02FE788E391E0215080409040E1F700C0B1
S11300C00000EAE7F0E0808180648083609178003A
S11300D070917900CB01880F991F880F991F680FC1
S11300E0791F80E090E00E94BC0120E030EC4FE7F3
S11300F054E40E944A016B017C0120E030E0A90134
S11301000E946E0218167CF420E030E040E25FE3C7
S1130110C701B6010E94450118162CF015B880E0FD
S113012090E00E94400020E030E040E25FE3C7013D
S1130130B6010E946E0218167CF420E030E040EA1A
S11301405FE3C701B6010E94450118162CF015B8EB
S113015081E090E00E94400020E030E040EA5FE36C
S1130160C701B6010E946E0218167CF420E030E04C
S113017040EF5FE3C701B6010E94450118162CF059
S113018015B882E090E00E94400020E030E040EFAB
S11301905FE3C701B6010E946E0218167CF420E0EA
S11301A030E040E250E4C701B6010E944501181650
S11301B02CF015B883E090E00E94400020E030E08D
S11301C040E250E4C701B6010E946E0218167CF4A6
S11301D020E030E048E450E4C701B6010E94450144
S11301E018162CF015B884E090E00E94400020E03E
S11301F030E048E450E4C701B6010E946E021816CC
S11302007CF420E030E040E750E4C701B6010E94EE
S1130210450118162CF015B885E090E00E944000C6
S113022020E030E040E750E4C701B6010E946E02CE
S113023018167CF420E030E04CE850E4C701B60125
S11302400E94450118162CF015B886E090E00E9433
S1130250400020E030E04CE850E4C701B6010E94C1
S11302606E0218160CF024CF20E030E040EA50E48F
S1130270C701B6010E94450118160CF419CF15B830
S113028087E090E00E94400013CF0E94F90108F437
S113029081E008950E945E010C9434020E942D02B4
S11302A058F00E94260240F029F45F3F29F00C9494
S11302B01D0251110C9468020C9423020E94450201
S11302C068F39923B1F3552391F3951B550BBB2781
S11302D0AA2762177307840738F09F5F5F4F220FC6
S11302E0331F441FAA1FA9F335D00E2E3AF0E0E8BD
S11302F032D091505040E695001CCAF72BD0FE2F07
S113030029D0660F771F881FBB1F2617370748079A
S1130310AB07B0E809F0BB0B802DBF01FF27935852
S11303205F4F3AF09E3F510578F00C941D020C94F7
S113033068025F3FE4F3983ED4F38695779567951A
S1130340B795F7959F5FC9F7880F911D9695879587
S113035097F90895E1E0660F771F881FBB1F6217A6
S113036073078407BA0720F0621B730B840BBA0B64
S1130370EE1F88F7E0950895E89409C097FB3EF4D2
S113038090958095709561957F4F8F4F9F4F9923DE
S1130390A9F0F92F96E9BB279395F695879577955C
S11303A06795B795F111F8CFFAF4BB0F11F460FF1C
S11303B01BC06F5F7F4F8F4F9F4F16C0882311F074
S11303C096E911C0772321F09EE8872F762F05C088
S11303D0662371F096E8862F70E060E02AF09A9523
S11303E0660F771F881FDAF7880F9695879597F918
S11303F00895990F0008550FAA0BE0E8FEEF1616B2
S11304001706E807F907C0F012161306E407F50704
S113041098F0621B730B840B950B39F40A2661F078
S1130420232B242B252B21F408950A2609F4A1401B
S1130430A6958FEF811D811D089597F99F6780E828
S113044070E060E008959FEF80EC089500240A9422
S11304501616170618060906089500240A9412169B
S11304601306140605060895092E0394000C11F4CE
S1130470882352F0BB0F40F4BF2B11F460FF04C07B
S11304806F5F7F4F8F4F9F4F089557FD9058440FD4
S1130490551F59F05F3F71F04795880F97FB991FDF
S11304A061F09F3F79F0879508951216130614069C
S11304B0551FF2CF4695F1DF08C016161706180629
S11304C0991FF1CF86957105610508940895E89404
S11304D0BB2766277727CB0197F908950E94F90176
S10D04E008F48FEF0895F894FFCF9D
S9030000FC
