S01000004C43445F656D5F432E737265636E
S11300000C9434000C9449000C9449000C9449005D
S11300100C9449000C9449000C9449000C94490038
S11300200C9449000C9449000C9449000C94490028
S11300300C9449000C9449000C9449000C94490018
S11300400C9449000C9449000C9449000C94490008
S11300500C9449000C9449000C9449000C944900F8
S11300600C9449000C94490011241FBECFEFD8E032
S1130070DEBFCDBF11E0A0E0B1E0EEE4F2E002C0EB
S113008005900D92AE31B107D9F70E940B010C9483
S113009025010C9400005F9888230CF45F9A5E9805
S11300A086FD5E9A5D9885FD5D9A5C9884FD5C9AF8
S11300B0299A85E08A95F1F70000299885E08A95C8
S11300C0F1F700000895CF93C82F289A29980E9429
S11300D04B008C2F8295807F0E944B00CF91089516
S11300E00F931F93CF93DF9300D0CDB7DEB78C016E
S11300F01A821982E981FA81E80FF91F8081882325
S1130100C9F0E981FA81E00FF11F80810E94630048
S113011089819A8101969A8389838FE391E001977B
S1130120F1F700C00000E981FA81E00FF11F80813E
S11301308111E7CF0F900F90DF91CF911F910F9115
S11301400895CF93C82F289829980E944B008C2F8C
S11301508295807F0E944B00CF9108952FEF81EE0E
S113016094E0215080409040E1F700C000002898BE
S1130170299880E30E944B008FE39CE90197F1F7F3
S113018000C0000080E30E944B008FE193E00197E0
S1130190F1F700C0000080E30E944B008FE193E080
S11301A00197F1F700C0000088E20E944B008FE342
S11301B091E00197F1F700C0000088E20E94A100DD
S11301C08FE391E00197F1F700C0000088E00E94FE
S11301D0A1008FE391E00197F1F700C0000081E0F6
S11301E00E94A1008FE79EE30197F1F700C0000091
S11301F086E00E94A1008FE391E00197F1F700C02F
S113020000008CE00E94A1008FE391E00197F1F7D8
S113021000C000000895579A569A559A549A219A04
S1130220209A0E94AE0080E191E00E94700080EC70
S11302300E94A1008FE391E00197F1F700C0000054
S111024080E091E00E947000FFCFF894FFCFA1
S113024E4C43442D4156522D3720286763632900B1
S111025E2D3D2D5745534C45592D3D2D000087
S9030000FC
