S01700007468655F77616C6B696E675F6C65642E73726563EC
S11300000C9434000C9451000C9451000C94510045
S11300100C9451000C9451000C9451000C94510018
S11300200C9451000C9451000C9451000C94510008
S11300300C9451000C9451000C9451000C945100F8
S11300400C9451000C9451000C9451000C945100E8
S11300500C9451000C9451000C9451000C945100D8
S11300600C9451000C94510011241FBECFEFD8E022
S1130070DEBFCDBF11E0A0E0B1E0ECE8F1E002C0EA
S113008005900D92A230B107D9F721E0A2E0B1E0CA
S113009001C01D92A430B207E1F70E9453000C94F2
S11300A0C4000C94000084B19FEF94B9E1E8F0E03F
S11300B080818B60808325E030E030938900209339
S11300C08800EFE6F0E080818260808395B92FE9B3
S11300D036E841E0215030404040E1F700C00000E4
S11300E015B88FE996E821E0815090402040E1F76F
S11300F000C0000080E090E002C080E090E0209129
S113010000013091010121303105E1F490930301A4
S11301108093020145B121E030E0082E02C0220F95
S1130120331F0A94E2F7242B25B93FE34DE023E083
S1130130315040402040E1F700C00000109201011E
S1130140109200012091000130910101232BB1F4A0
S1130150909303018093020135B161E070E0AB013B
S1130160082E02C0440F551F0A94E2F7242F20954D
S1130170232325B970930101609300018730910511
S10F018009F4BBCF0196BBCFF894FFCF6D
S105018C01006C
S9030000FC
